{
  "contractName": "Subscribe",
  "abi": [
    {
      "inputs": [],
      "payable": false,
      "stateMutability": "nonpayable",
      "type": "constructor"
    },
    {
      "constant": true,
      "inputs": [],
      "name": "actualCount",
      "outputs": [
        {
          "internalType": "uint256",
          "name": "",
          "type": "uint256"
        }
      ],
      "payable": false,
      "stateMutability": "view",
      "type": "function"
    },
    {
      "constant": true,
      "inputs": [],
      "name": "allSubCount",
      "outputs": [
        {
          "internalType": "uint256",
          "name": "",
          "type": "uint256"
        }
      ],
      "payable": false,
      "stateMutability": "view",
      "type": "function"
    },
    {
      "constant": true,
      "inputs": [
        {
          "internalType": "address",
          "name": "",
          "type": "address"
        }
      ],
      "name": "compPosition",
      "outputs": [
        {
          "internalType": "uint256",
          "name": "",
          "type": "uint256"
        }
      ],
      "payable": false,
      "stateMutability": "view",
      "type": "function"
    },
    {
      "constant": true,
      "inputs": [
        {
          "internalType": "uint256",
          "name": "",
          "type": "uint256"
        }
      ],
      "name": "compSubs",
      "outputs": [
        {
          "internalType": "string",
          "name": "compName",
          "type": "string"
        },
        {
          "internalType": "string",
          "name": "subject",
          "type": "string"
        },
        {
          "internalType": "string",
          "name": "body",
          "type": "string"
        }
      ],
      "payable": false,
      "stateMutability": "view",
      "type": "function"
    },
    {
      "constant": false,
      "inputs": [
        {
          "internalType": "string",
          "name": "_name",
          "type": "string"
        },
        {
          "internalType": "string",
          "name": "_subject",
          "type": "string"
        },
        {
          "internalType": "string",
          "name": "_body",
          "type": "string"
        }
      ],
      "name": "addCompSub",
      "outputs": [],
      "payable": false,
      "stateMutability": "nonpayable",
      "type": "function"
    },
    {
      "constant": false,
      "inputs": [
        {
          "internalType": "string",
          "name": "_name",
          "type": "string"
        },
        {
          "internalType": "string",
          "name": "_subject",
          "type": "string"
        },
        {
          "internalType": "string",
          "name": "_body",
          "type": "string"
        }
      ],
      "name": "changeCompSub",
      "outputs": [],
      "payable": false,
      "stateMutability": "nonpayable",
      "type": "function"
    },
    {
      "constant": false,
      "inputs": [],
      "name": "deleteCompSub",
      "outputs": [],
      "payable": false,
      "stateMutability": "nonpayable",
      "type": "function"
    }
  ],
  "bytecode": "0x60806040523480156200001157600080fd5b50620000c46040518060400160405280600e81526020017f416a6179416e64436f6d70616e790000000000000000000000000000000000008152506040518060400160405280600581526020017f48656c6c6f0000000000000000000000000000000000000000000000000000008152506040518060400160405280600b81526020017f576f726c64205065616365000000000000000000000000000000000000000000815250620000ca60201b60201c565b620002c4565b6000600160003373ffffffffffffffffffffffffffffffffffffffff1673ffffffffffffffffffffffffffffffffffffffff16815260200190815260200160002054146200011757600080fd5b600260008154809291906001019190505550600360008154809291906001019190505550604051806060016040528084815260200183815260200182815250600080600254815260200190815260200160002060008201518160000190805190602001906200018892919062000215565b506020820151816001019080519060200190620001a792919062000215565b506040820151816002019080519060200190620001c692919062000215565b50905050600254600160003373ffffffffffffffffffffffffffffffffffffffff1673ffffffffffffffffffffffffffffffffffffffff16815260200190815260200160002081905550505050565b828054600181600116156101000203166002900490600052602060002090601f016020900481019282601f106200025857805160ff191683800117855562000289565b8280016001018555821562000289579182015b82811115620002885782518255916020019190600101906200026b565b5b5090506200029891906200029c565b5090565b620002c191905b80821115620002bd576000816000905550600101620002a3565b5090565b90565b610eb380620002d46000396000f3fe608060405234801561001057600080fd5b506004361061007d5760003560e01c806393e0c3411161005b57806393e0c341146102cd5780639d49d83d146102eb578063dc01ae3f14610309578063ddb6477f146104885761007d565b80636ba184b3146100825780636f68b2a2146100da5780637f64e922146100e4575b600080fd5b6100c46004803603602081101561009857600080fd5b81019080803573ffffffffffffffffffffffffffffffffffffffff169060200190929190505050610671565b6040518082815260200191505060405180910390f35b6100e2610689565b005b6102cb600480360360608110156100fa57600080fd5b810190808035906020019064010000000081111561011757600080fd5b82018360208201111561012957600080fd5b8035906020019184600183028401116401000000008311171561014b57600080fd5b91908080601f016020809104026020016040519081016040528093929190818152602001838380828437600081840152601f19601f820116905080830192505050505050509192919290803590602001906401000000008111156101ae57600080fd5b8201836020820111156101c057600080fd5b803590602001918460018302840111640100000000831117156101e257600080fd5b91908080601f016020809104026020016040519081016040528093929190818152602001838380828437600081840152601f19601f8201169050808301925050505050505091929192908035906020019064010000000081111561024557600080fd5b82018360208201111561025757600080fd5b8035906020019184600183028401116401000000008311171561027957600080fd5b91908080601f016020809104026020016040519081016040528093929190818152602001838380828437600081840152601f19601f8201169050808301925050505050505091929192905050506108c3565b005b6102d5610a4f565b6040518082815260200191505060405180910390f35b6102f3610a55565b6040518082815260200191505060405180910390f35b6103356004803603602081101561031f57600080fd5b8101908080359060200190929190505050610a5b565b60405180806020018060200180602001848103845287818151815260200191508051906020019080838360005b8381101561037d578082015181840152602081019050610362565b50505050905090810190601f1680156103aa5780820380516001836020036101000a031916815260200191505b50848103835286818151815260200191508051906020019080838360005b838110156103e35780820151818401526020810190506103c8565b50505050905090810190601f1680156104105780820380516001836020036101000a031916815260200191505b50848103825285818151815260200191508051906020019080838360005b8381101561044957808201518184015260208101905061042e565b50505050905090810190601f1680156104765780820380516001836020036101000a031916815260200191505b50965050505050505060405180910390f35b61066f6004803603606081101561049e57600080fd5b81019080803590602001906401000000008111156104bb57600080fd5b8201836020820111156104cd57600080fd5b803590602001918460018302840111640100000000831117156104ef57600080fd5b91908080601f016020809104026020016040519081016040528093929190818152602001838380828437600081840152601f19601f8201169050808301925050505050505091929192908035906020019064010000000081111561055257600080fd5b82018360208201111561056457600080fd5b8035906020019184600183028401116401000000008311171561058657600080fd5b91908080601f016020809104026020016040519081016040528093929190818152602001838380828437600081840152601f19601f820116905080830192505050505050509192919290803590602001906401000000008111156105e957600080fd5b8201836020820111156105fb57600080fd5b8035906020019184600183028401116401000000008311171561061d57600080fd5b91908080601f016020809104026020016040519081016040528093929190818152602001838380828437600081840152601f19601f820116905080830192505050505050509192919290505050610c4d565b005b60016020528060005260406000206000915090505481565b6000600160003373ffffffffffffffffffffffffffffffffffffffff1673ffffffffffffffffffffffffffffffffffffffff16815260200190815260200160002054116106d557600080fd5b6000806000600160003373ffffffffffffffffffffffffffffffffffffffff1673ffffffffffffffffffffffffffffffffffffffff168152602001908152602001600020548152602001908152602001600020600001805460018160011615610100020316600290049050141561074b57600080fd5b600080600160003373ffffffffffffffffffffffffffffffffffffffff1673ffffffffffffffffffffffffffffffffffffffff16815260200190815260200160002054815260200190815260200160002060000160006107ab9190610d91565b600080600160003373ffffffffffffffffffffffffffffffffffffffff1673ffffffffffffffffffffffffffffffffffffffff168152602001908152602001600020548152602001908152602001600020600101600061080b9190610d91565b600080600160003373ffffffffffffffffffffffffffffffffffffffff1673ffffffffffffffffffffffffffffffffffffffff168152602001908152602001600020548152602001908152602001600020600201600061086b9190610d91565b600160003373ffffffffffffffffffffffffffffffffffffffff1673ffffffffffffffffffffffffffffffffffffffff1681526020019081526020016000206000905560036000815480929190600190039190505550565b6000600160003373ffffffffffffffffffffffffffffffffffffffff1673ffffffffffffffffffffffffffffffffffffffff168152602001908152602001600020541161090f57600080fd5b6000806000600160003373ffffffffffffffffffffffffffffffffffffffff1673ffffffffffffffffffffffffffffffffffffffff1681526020019081526020016000205481526020019081526020016000206000018054600181600116156101000203166002900490501461098457600080fd5b604051806060016040528084815260200183815260200182815250600080600160003373ffffffffffffffffffffffffffffffffffffffff1673ffffffffffffffffffffffffffffffffffffffff1681526020019081526020016000205481526020019081526020016000206000820151816000019080519060200190610a0c929190610dd9565b506020820151816001019080519060200190610a29929190610dd9565b506040820151816002019080519060200190610a46929190610dd9565b50905050505050565b60025481565b60035481565b6000602052806000526040600020600091509050806000018054600181600116156101000203166002900480601f016020809104026020016040519081016040528092919081815260200182805460018160011615610100020316600290048015610b075780601f10610adc57610100808354040283529160200191610b07565b820191906000526020600020905b815481529060010190602001808311610aea57829003601f168201915b505050505090806001018054600181600116156101000203166002900480601f016020809104026020016040519081016040528092919081815260200182805460018160011615610100020316600290048015610ba55780601f10610b7a57610100808354040283529160200191610ba5565b820191906000526020600020905b815481529060010190602001808311610b8857829003601f168201915b505050505090806002018054600181600116156101000203166002900480601f016020809104026020016040519081016040528092919081815260200182805460018160011615610100020316600290048015610c435780601f10610c1857610100808354040283529160200191610c43565b820191906000526020600020905b815481529060010190602001808311610c2657829003601f168201915b5050505050905083565b6000600160003373ffffffffffffffffffffffffffffffffffffffff1673ffffffffffffffffffffffffffffffffffffffff1681526020019081526020016000205414610c9957600080fd5b60026000815480929190600101919050555060036000815480929190600101919050555060405180606001604052808481526020018381526020018281525060008060025481526020019081526020016000206000820151816000019080519060200190610d08929190610dd9565b506020820151816001019080519060200190610d25929190610dd9565b506040820151816002019080519060200190610d42929190610dd9565b50905050600254600160003373ffffffffffffffffffffffffffffffffffffffff1673ffffffffffffffffffffffffffffffffffffffff16815260200190815260200160002081905550505050565b50805460018160011615610100020316600290046000825580601f10610db75750610dd6565b601f016020900490600052602060002090810190610dd59190610e59565b5b50565b828054600181600116156101000203166002900490600052602060002090601f016020900481019282601f10610e1a57805160ff1916838001178555610e48565b82800160010185558215610e48579182015b82811115610e47578251825591602001919060010190610e2c565b5b509050610e559190610e59565b5090565b610e7b91905b80821115610e77576000816000905550600101610e5f565b5090565b9056fea265627a7a72315820c539a7c05b9a93c4016256cb7cc95e239607cb6c337dd79fe8145978550e16f364736f6c63430005100032",
  "source": "pragma solidity >=0.4.22 <0.9.0;\n\n//This contract will\n//1. Allow new companies to post their daily sub\n//2. Allow companies to update/delete their sub\n//3. Allow frontend UI to pull data present in the contract\n\n//subs = await Subscribe.deployed()\ncontract Subscribe{\n\tconstructor() public {\n\t\t//await subs.compSubs(1)\n\t\taddCompSub(\"AjayAndCompany\",\"Hello\",\"World Peace\");\n\t\t//await subs.compSub(2)\n\t\t//addCompSub(\"ManaliAndCompany\",\"Bye\",\"World War\");\n\t}\n\tstruct compSub {\n\t\tstring compName;\n\t\tstring subject;\n\t\tstring body;\n\t}\n\n\tmapping (uint => compSub) public compSubs;\n\tmapping (address => uint) public compPosition;\n\n\tuint public allSubCount;\n\tuint public actualCount;\n\n\t//if called during run time, this will create a transaction and that's how it will store data\n\t//subs.addCompSub(\"Raj\",\"ohnono\",\"go\",{from:accounts[0]})\n\tfunction addCompSub (string memory _name, string memory _subject, string memory _body) public {\n\t\trequire(compPosition[msg.sender]==0);\n\t\tallSubCount ++;\n\t\tactualCount ++;\n\t\tcompSubs[allSubCount] = compSub(_name,_subject,_body);\n\t\tcompPosition[msg.sender] = allSubCount;\n\t}\n\n\t//in order to change the sub, we need to know the position of the comp in the compSub\n\t//we can do that by saving the msg.sender address the first time we create a sub\n\tfunction changeCompSub(string memory _name, string memory _subject, string memory _body) public {\n\t\t//make sure to make some require statements here to make sure that msg.sender exists in dict else something random happens\n\t\trequire(compPosition[msg.sender] > 0);\n\t\trequire(bytes(compSubs[compPosition[msg.sender]].compName).length==0);\n\t\tcompSubs[compPosition[msg.sender]] = compSub(_name,_subject,_body);\n\t}\n\n\tfunction deleteCompSub() public {\n\t\t//first require  the company address exists in the mapping\n\t\trequire(compPosition[msg.sender] > 0);\n\t\trequire(bytes(compSubs[compPosition[msg.sender]].compName).length!=0);\n\t\tdelete compSubs[compPosition[msg.sender]].compName;\n\t\tdelete compSubs[compPosition[msg.sender]].subject;\n\t\tdelete compSubs[compPosition[msg.sender]].body;\n\t\tdelete compPosition[msg.sender];\n\t\tactualCount --;\n\t}\n\n}\n\n//Made good progress\n//I am able to create this sub model pretty fast. Seems like defi is harder\n//All i need to do is add UI on this. This will allow users to get comp sub withoug sharing any data of theirs\n//all the need to do is open this UI and searh for their sub\n",
  "sourcePath": "/Users/rajdesai/Blockchain/bsub/contracts/Subscribe.sol",
  "compiler": {
    "name": "solc",
    "version": "0.5.16+commit.9c3226ce.Emscripten.clang"
  },
  "schemaVersion": "3.3.4",
  "updatedAt": "2021-06-18T03:02:21.015Z",
  "networkType": "ethereum",
  "devdoc": {
    "methods": {}
  },
  "userdoc": {
    "methods": {}
  }
}